:020000040800F2
:10000000500A0020CD0100084F2000085F1B0008A7
:100010004D200008F90200088129000800000000B6
:100020000000000000000000000000005320000855
:10003000FB0200080000000051200008092300080E
:10004000E7010008E7010008E7010008E7010008F0
:10005000E7010008E7010008E7010008E7010008E0
:10006000E7010008E7010008E7010008E7010008D0
:10007000E7010008E7010008E7010008E7010008C0
:10008000E7010008E7010008E7010008E7010008B0
:10009000E7010008E7010008E7010008E7010008A0
:1000A000E7010008E7010008E7010008E701000890
:1000B000E7010008E7010008E7010008E701000880
:1000C000E7010008E7010008E7010008E701000870
:1000D000E701000875290008E7010008E7010008AA
:1000E000E7010008E7010008E7010008E701000850
:1000F000E7010008E7010008E7010008E701000840
:10010000E7010008E7010008E7010008E70100082F
:10011000E7010008E70100086D230008E701000877
:10012000E7010008E7010008E7010008E70100080F
:1001300000F002F800F03AF80AA090E8000C8244BF
:100140008344AAF10107DA4501D100F02FF8AFF29C
:10015000090EBAE80F0013F0010F18BFFB1A43F0A5
:1001600001031847442D0000642D0000103A24BFFD
:1001700078C878C1FAD8520724BF30C830C144BF0C
:1001800004680C607047000000230024002500264E
:10019000103A28BF78C1FBD8520728BF30C148BFEA
:1001A0000B6070471FB51FBD10B510BD00F058F8AB
:1001B0001146FFF7F7FF02F0F5FB00F076F803B405
:1001C000FFF7F2FF03BC00F07DF80000094880470C
:1001D00009480047FEE7FEE7FEE7FEE7FEE7FEE729
:1001E000FEE7FEE7FEE7FEE704480549054A064B41
:1001F0007047000069230008310100085004002006
:10020000500A002050060020500600204FF0000247
:1002100000B5134694469646203922BFA0E80C50FC
:10022000A0E80C50B1F12001BFF4F7AF090728BFD7
:10023000A0E80C5048BF0CC05DF804EB890028BF53
:1002400040F8042B08BF704748BF20F8022B11F07C
:10025000804F18BF00F8012B7047704770477047F8
:10026000754600F02BF8AE4605006946534620F06F
:100270000700854618B020B5FFF7B6FFBDE820405F
:100280004FF000064FF000074FF000084FF0000B52
:1002900021F00701AC46ACE8C009ACE8C009ACE805
:1002A000C009ACE8C0098D46704710B50446AFF3ED
:1002B00000802046BDE81040FFF781BF004870472E
:1002C000EC03002001491820ABBEFEE72600020027
:1002D0007047000000B500F013F8064B186100F0FD
:1002E0001DF8586100F028F8986100F033F8D861E3
:1002F00000BD000000000020FEE7704772B6FEE778
:1003000004480068416A044A09B21160002242624E
:10031000484270472801002000000020044801687E
:10032000486A044A00B2506000224A6270470000E6
:10033000000200200000002004480168486A044AC6
:1003400000B2906000224A6270470000480200201C
:100350000000002004480068416A044A09B2D160E4
:100360000022426248427047D8020020000000206C
:1003700010B590F821100022022905D004218163D4
:1003800080F82020012010BD01680B6823F00E03C7
:100390000B6001680B6823F001030B6090F840309C
:1003A000012404FA03F1C36B596080F8214080F8FE
:1003B0002020104610BD00002DE9F05F90F82110BC
:1003C0000024022903D004218163012485E001680F
:1003D0000A6822F00E020A6001680A6822F001022F
:1003E0000A603F4E3E4FB215DFF8F4C0DFF8F090E0
:1003F000DFF8ECA0DFF8E8B0DFF8E4E00168783F70
:1004000013011502ACF1640CA9F15009AAF13C0AE0
:10041000ABF1280BAEF1140E4FF48018B14227D97E
:10042000B9420ED0614512D049451DD0514518D072
:10043000594518D0714501D1424615E0294EB142C7
:1004400001D1012210E0274E1436B14201D1102211
:100450000AE0244E2836B14206D0224A3C3291426C
:1004600001D11A4600E02A461E49091F0A602BE006
:10047000B94213D0614517D0494522D051451DD00E
:1004800059451DD0714501D142461AE0B14202D111
:100490004FF0807215E0134EB14201D1012210E0FD
:1004A000104E1436B14201D110220AE00D4E28360A
:1004B000B14206D00B4A3C32914201D11A4600E0CB
:1004C0002A46074980394A60012180F8211000211D
:1004D00080F82010416B01B188472046BDE8F09FAD
:1004E00080000240080402402DE9F84FDFF8C09177
:1004F000002409F1040A0AF1040B23464FF00F0807
:100500000BF1040ECCE00127A7403A40BA4272D169
:10051000DFF8A0C14D68A5EB0C0665452BD00DDCBE
:10052000032D34D005DC35B3012D19D0022D2FD188
:100530001BE0112D16D0122D2AD119E0B6F5881F17
:1005400019D006DCB6F5803F15D0B6F5801F1FD157
:1005500011E0B6F5001F0ED0B6F5041F18D10AE061
:10056000CB6815E0CB681B1D12E0CB6808330FE0A9
:10057000CB680C330CE08B682BB1012B4FF00803D8
:1005800003D0476104E0042302E0076100E0002398
:10059000FF2A01D8064601E000F104064FEA84056F
:1005A00001D9A5F12005376808FA05FC27EA0C07F0
:1005B00003FA05F547EA050737604D68ED006ED58B
:1005C0003D4DAE6946F00106AE61AD6924F003060B
:1005D00005F001050095394D7719BE68A5072D0F67
:1005E00008FA05FC26EA0C06DFF8D4C0604503D102
:1005F0004FF0000C25E052E0DFF8C8C0604502D1A2
:100600004FF0010C1DE0DFF8C0C0604502D14FF093
:10061000020C16E0DFF8B4C0604502D14FF0030CC5
:100620000FE0DFF8ACC0604502D14FF0040C08E0E9
:10063000DFF8A0C0604502D14FF0050C01E04FF09B
:10064000060C0CFA05FC4CEA060CC7F808C04D680D
:10065000D9F80060ED034D4601D5164300E09643FE
:100660002E604D68DAF80060AD03554601D516439B
:1006700000E096432E604D68DBF80060ED025D46B9
:1006800001D5164300E096432E604D68DEF8006009
:10069000AD02754601D5164300E096432E60641CFA
:1006A0000A6832FA04F57FF42EAFBDE8F88F000037
:1006B0000004014000001110001002400000014041
:1006C00000080140000C01400010014000140140EE
:1006D00000180140001C01408068084000D0012043
:1006E00070470AB1016170470904FBE7014880685F
:1006F00070470000AC00002070B5040025D094F8CD
:100700003D00002520B984F83C50204600F0B8F8A0
:10071000242084F83D002068016821F00101016077
:100720002068016841F4004101602068016821F4FB
:100730000041016000F006FA4D4B6168994201D812
:100740004C4900E04C49884201D2012070BD4B4920
:100750002268B0FBF1F1566826F03F060E43566062
:1007600062689A4206D94FF4967251434FF47A72F6
:10077000B1FBF2F12268491C166A26F03F063143AC
:1007800011626168994210D84900401EB0FBF1F235
:10079000521CC2F30B02042A01D2042022E0B0FB57
:1007A000F1F0401CC0F30B001CE0A268F2B301EBB7
:1007B000C10303EB0116431EB3FBF6F35B1C43F4CA
:1007C00080431B0549D092B301EBC10202EB01113A
:1007D000401EB0FBF1F0401CC0F30B0040F4804021
:1007E00040F400402168CA694CF6FF739A431043F5
:1007F000C861D4E9071001432068026822F0C002F2
:1008000011430160D4E9030101432068826848F282
:10081000FF339A4311438160D4E9051001432068F6
:10082000C26822F0FF021143C16001E00EE016E051
:100830002068016841F0010101602564202084F8EE
:100840003D00256384F83E50002070BD01EB410659
:10085000431EB3FBF6F35B1CB3E70120C2E701EBD9
:100860004101401EB0FBF1F0401CC0F30B00B7E7A4
:10087000A086010080841E0000093D0040420F0058
:1008800010B586B00021009101910291039100689A
:100890000F4988421AD10F4CA06940F00800A061AE
:1008A000A069694600F008000490C0200090122062
:1008B0000190032003900848FFF716FEE06940F41A
:1008C0000010E061E06900F40010049006B010BD73
:1008D0000054004000100240000C014002488168B2
:1008E0000278114481607047AC000020074810B5C1
:1008F000016841F010010160032000F075F80F203D
:1009000000F006F800F024F8002010BD002002409E
:1009100070B50D4D04464FF47A712878B1FBF0F0B4
:100920000A490968B1FBF0F000F0EEFA48B9102C62
:1009300007D200222146501E00F036F800206C60DD
:1009400070BD012070BD0000AC000020B800002088
:100950000C4808B5816941F001018161816901F0AC
:1009600001010091C16941F08051C161C06906492E
:1009700000F080500090486820F0E06040F0007087
:10098000486008BD0010024000000140002809DB5B
:1009900000F01F02012191404009800000F1E02099
:1009A000C0F8001170470000F0B40E4B1B68C3F391
:1009B0000223C3F10704042C00D904241D1D072DB4
:1009C00001D2002300E0DB1E012606FA04F56D1EAD
:1009D0000D409D409E40761E164045EA0601F0BC43
:1009E00001F0CFBF0CED00E0064A00F007011068EF
:1009F0004FF6FF03184040EA012003490843106006
:100A0000704700000CED00E00000FA052DE9F0470A
:100A10000D46040067D0DFF81881D8F8000000F018
:100A20000700A8420CD2D8F8001021F00701294392
:100A3000C8F80010D8F8000000F00700A84252D112
:100A400020683C4E810712D5400703D5706840F4FA
:100A5000E06070602078000703D5706840F4605053
:100A600070607068A16820F0F00008437060207822
:100A7000C00727D06068012810D03168022810D044
:100A8000890700292FDA716821F0030101437160A1
:100A9000FFF72CFE074641F288390CE031688903E4
:100AA000EFE78901EDE7FFF721FEC11B494502D9B8
:100AB0000320BDE8F0877068616800F00C00B0EBBF
:100AC000810FF0D1D8F80010404601F00701A9428B
:100AD0000BD9016821F0070129430160006800F08B
:100AE0000700A84201D00120E3E72078400705D5A0
:100AF0007068E16820F4E0600843706020780007C7
:100B000006D57068216920F4605040EAC100706029
:100B100000F038F87168084AC1F30311515CC8400D
:100B20000649086006480068FFF7F2FE0020C0E7AB
:100B300000200240001002408E2E0008B800002065
:100B4000B00000200448054900684968044AC1F320
:100B50000221515CC8407047B800002000100240DC
:100B60009E2E00080448054900684968044AC1F3FC
:100B7000C221515CC8407047B800002000100240FC
:100B80009E2E000812A085B00FC88DE80F0014A09B
:100B9000144B006804905968134801F00C02042AB1
:100BA00010D0082A0ED1C1F38342C9031DF80200F8
:100BB0000AD5596804AAC1F34041515C0A4A50431E
:100BC000B0FBF1F005B0704708494843FAE7000070
:100BD00002030405060708090A0B0C0D0E0F10107E
:100BE000010200000010024000127A0000093D00DE
:100BF0002DE9F84F04006FD02078BE4DC00747D0D4
:100C00006868C0F38100012807D06868C0F38100DC
:100C1000022809D16868C00306D52868800337D543
:100C200060680028E7D033E06068B0F5803F0BD003
:100C300010B1B0F5A02F11D0286820F480302860C2
:100C4000286820F4802002E0286840F48030286082
:100C5000606888B1FFF74AFD064609E0286840F45D
:100C600080202860F0E7FFF741FD801B642873D8DF
:100C700028688003F7D50BE0FFF738FD064604E04F
:100C8000FFF734FD801B6428F1D828688003F7D46F
:100C90002078DFF8648280074FF0010A4FF00009E6
:100CA00039D5686810F00C0F07D06868C0F3810070
:100CB000022809D16868C00306D42868800714D5C3
:100CC0002069012808D110E02069B0B1C8F800A05F
:100CD000FFF70CFD064605E007E1FFF707FD801B67
:100CE0000228C4D828688007F7D52868616920F0F1
:100CF000F80040EAC10028600DE0C8F80090FFF756
:100D0000F5FC064604E0FFF7F1FC801B022823D81F
:100D100028688007F7D4207800072CD57748A16988
:100D2000D9B1C0F800A0FFF7E1FC064604E0FFF7E8
:100D3000DDFC801B02280FD8686A8007F7D5704851
:100D40004FF4FA510068B0FBF1F0009000BF00983A
:100D5000411E0091FAD20EE07CE0C0F80090FFF74F
:100D6000C5FC064604E0FFF7C1FC801B022871D8D1
:100D7000686A8007F7D4207840075BD5E8690027C8
:100D8000C00008D4E86940F08050E861E8690127B4
:100D900000F0805000905B480168C90511D40168DB
:100DA000834641F480710160FFF7A0FC064604E031
:100DB000FFF79CFC801B64284CD8DBF80000C005C2
:100DC000F6D5E06801280AD008B1052813D0286AB2
:100DD00020F001002862286A20F0040002E0286A5E
:100DE00040F001002862E06841F2883B88B1FFF7DB
:100DF0007DFC064609E0286A40F004002862EEE720
:100E0000FFF774FC811B59455BD8286A8007F7D52A
:100E10000BE0FFF76BFC064604E0FFF767FC811B65
:100E200059454ED8286A8007F7D41FB1E86920F0E9
:100E30008050E861E069A8B36968C1F381010229C3
:100E400046D00228484606D0C8F86000FFF74EFC9E
:100E5000044639E035E04746C8F86000FFF746FC35
:100E6000064604E0FFF742FC801B022829D82868C8
:100E70008001F7D4206AB0F5803F05D16868A16889
:100E800020F4003008436860D4E908010843696829
:100E900021F4741108436860C7F860A0FFF726FCCE
:100EA000044605E023E0FFF721FC001B022808D8D8
:100EB00028688001F7D51AE0FFF718FC001B02280C
:100EC00002D90320BDE8F88F28688001F4D40EE031
:100ED0000128F7D06868226A00F48031914204D179
:100EE000616A00F47010884201D00120EAE7002016
:100EF000E8E7000000100240000042428004424245
:100F0000B80000200070004010B5401EB0F1807F96
:100F100001D3012010BD4FF0E02460610F21601764
:100F200001F02FFD0020A06107202061002010BDEE
:100F30007047704770B590F83C20012A2CD00125ED
:100F400080F83C50022280F83D2002685368946883
:100F500023F070060B6833435360104B02689A42CB
:100F60000ED00F4B9A420BD0B2F1804F08D00D4BF0
:100F70009A4205D00C4B9A4202D00C4B9A4204D1B3
:100F8000496824F080031943916080F83D500021A6
:100F900080F83C10084670BD022070BD002C014056
:100FA000003401400004004000080040000C0040F4
:100FB00010B5040003D094F83D0010B107E0012003
:100FC00010BD002084F83C00204600F01FF80220ED
:100FD00084F83D00211D206801F01AFA012084F8F0
:100FE000460084F83E0084F83F0084F8400084F80E
:100FF000410084F8420084F8430084F8440084F8F7
:10100000450084F83D00002010BD000008B50068D0
:101010000B49884212D10B48C16941F01001C161EE
:10102000C069002200F01000009011463620FFF742
:10103000BBFCBDE808403620FFF7A8BC08BD000097
:10104000001000400010024090F83D10012901D02E
:1010500001207047022180F83D100168CA6842F003
:101060000102CA6000680E4988420ED00D498842CC
:101070000BD0B0F1804F08D00B49884205D00B4906
:10108000884202D00A49884204D1816801F00701F0
:10109000062903D0016841F001010160002070477A
:1010A000002C0140003401400004004000080040D2
:1010B000000C00402DE9F0410D46040003D094F8E7
:1010C0003D0018B108E00120BDE8F081002084F85F
:1010D0003C00204600F040F8022084F83D002068E3
:1010E000816844F2070291438160211D206801F06C
:1010F0008FF9206881688269066A2B68AF690B43A3
:1011000040F203318A4342EA0722A968EF6911439A
:101110004FF6FC429143EA6841EA07210A432969F4
:101120002F6A090141EA073111436A686D6926F0A7
:10113000220646EA05152A4383602068816154F837
:10114000460B0262012004F81F09E0752076E07664
:101150002077A0750020B7E710B586B00021009178
:1011600001910291039100683B4A3C493C4C9042FA
:101170001ED1886940F400608861886900F40060CD
:101180000490886940F0400088618869694600F0F1
:10119000400004904FF4206000903248FFF7A4F91B
:1011A000606820F0C00040F0E06040F0C0001EE049
:1011B0002D4A90421ED1C86940F00400C861C86938
:1011C00000F004000490886940F02000886188697C
:1011D000694600F0200004904FF4405000902348EE
:1011E000FFF782F9606840F0E06040F48050606092
:1011F00006B010BD1E4A904214D1C86940F00800E4
:10120000C861C86900F008000490886940F00400D3
:1012100088618869694600F004000490032000900A
:10122000144816E0144A9042E2D1886940F4005014
:101230008861886900F400500490886940F01000CB
:1012400088618869694600F010000490C020009011
:101250000A48FFF749F9CBE7002C01400010024093
:101260000000014000180140000800400014014047
:10127000000C004000080140003401400010014013
:1012800070B590F83E50044690F83F3090F84220F8
:1012900090F84300022621B104290BD0012D16D16C
:1012A0000FE0012D13D1012A11D184F83E6084F89A
:1012B000426016E0012B0AD1012808D184F83F6072
:1012C0000DE0012B03D1012A01D1012801D0012019
:1012D00070BD84F83E6084F83F6084F8426084F812
:1012E000436091B1042904D001220021206801F05B
:1012F000D5F801220421206801F0D0F820680168A7
:1013000041F001010160002070BD01220021206830
:10131000F2E7704770B50446006801694FF00005B8
:10132000C943890715D4C168C943890711D4E91E87
:10133000016101202077206880698007204602D063
:10134000FFF7E7FF04E000F0F1F8204600F09EF917
:10135000257720680169C943490717D4C168C94383
:10136000490713D46FF0040101610220207720683F
:10137000806910F4407F204602D0FFF7CAFF04E0E6
:1013800000F0D4F8204600F081F925772068016943
:10139000C943090716D4C168C943090712D46FF0BD
:1013A00008010161042020772068C0698007204679
:1013B00002D0FFF7AEFF04E000F0B8F8204600F0DE
:1013C00065F9257720680169C943C90617D4C16842
:1013D000C943C90613D46FF01001016108202077BA
:1013E0002068C06910F4407F204602D0FFF791FFCB
:1013F00004E000F09BF8204600F048F925772068CB
:101400000169C943C90708D1C168C943C90704D1E3
:10141000891E0161204600F099F920680169C943DD
:10142000090609D4C168C943090605D46FF08001D3
:1014300001612046FFF77CFD20680169C943490628
:1014400009D4C168C943490605D46FF04001016160
:10145000204600F07CF920680169C94389060BD455
:10146000C168C943890607D46FF020010161204695
:10147000BDE87040FFF75DBD70BD000030B585B0C0
:1014800000210091019102910391026822490224F6
:10149000224DB2F1804F24D0214882421FD1886969
:1014A00040F004008861886900F0040004908869B5
:1014B00040F0080088618869694600F008000490DF
:1014C000C020CDE9000417480394FFF70DF803206E
:1014D000CDE90004694628460394FFF705F805B0F6
:1014E00030BD886940F0080088618869694600F06D
:1014F000080004904FF48060CDE90004284603946E
:10150000FEF7F2FF0849486820F4407040F0E060C0
:1015100040F400704860E2E700100240000C014017
:10152000000400400008014000000140704770B511
:10153000044690F83C000D4601280AD0012084F8AA
:101540003C0042B1042A18D0082A2AD00C2A4DD1D6
:1015500039E0022070BD206800F0AEFF206881698C
:1015600041F0080181612068816921F004018161F5
:10157000206881692A69114311E0206800F0CCFFDE
:101580002068816941F4006181612068816921F4EA
:1015900080618161206881692A6941EA0221816153
:1015A00024E0206800F0EEFF2068C16941F00801E6
:1015B000C1612068C16921F00401C1612068C1696D
:1015C0002A69114311E0206801F010F82068C16910
:1015D00041F40061C1612068C16921F48061C16189
:1015E0002068C1692A6941EA0221C161002084F8AA
:1015F0003C0070BD10B5040003D094F83D0010B15C
:1016000007E0012010BD002084F83C00204600F0D7
:101610001FF8022084F83D00211D206800F0F8FE2C
:10162000012084F8460084F83E0084F83F0084F8E6
:10163000400084F8410084F8420084F8430084F8B4
:10164000440084F8450084F83D00002010BD0000EF
:1016500008B500680B49B0F1804F0BD00A4A9042A0
:1016600007D1C86940F00200C861C86900F00200F3
:10167000009008BDC86940F00100C861C86900F069
:101680000100F5E700100240000400407047000030
:1016900010B5044649B104290AD008290BD094F8A2
:1016A000410001280AD0012010BD94F83E00F8E75F
:1016B00094F83F00F5E794F84000F2E7022081B388
:1016C000042932D0082933D084F84100012220684F
:1016D00000F0E4FE184A20681849904201D0884280
:1016E00003D1436C43F400434364206890420DD01F
:1016F00088420BD0B0F1804F08D01149884205D004
:101700001049884202D01049884204D1816801F012
:101710000701062903D0016841F0010101600020A2
:1017200010BDFFE784F83E00D0E784F83F00CDE726
:1017300084F84000CAE70000002C0140003401405A
:101740000004004000080040000C00407047704753
:1017500070477047F8B5026804461068D16853694D
:1017600010F00F0F4FF0000554D003F0010601F404
:10177000907737435FD0C20705D0CA0503D5226CE6
:1017800042F001022264420705D5DA0703D0226C39
:1017900042F002022264820705D5DA0703D0226CE8
:1017A00042F004022264020707D501F0200232430E
:1017B00003D0226C42F008022264226C002A35D049
:1017C000800604D5880602D5204600F0FFFF206879
:1017D0004069216CC0F3801001F0080101432046EC
:1017E00025D000F0DBFF2068416949061BD541691F
:1017F00021F040014161A06BA8B158494163A06B41
:10180000FEF7DAFD002811D0A06B416B01B0BDE8F6
:10181000F040084783060ED58B060CD52046BDE860
:10182000F84000F0D3BF2046FFF793FFF8BDFFF765
:1018300090FF2564F8BD266B2023012E52D1C606E9
:1018400050D5CE064ED510685068009050694006BD
:101850002AD5A16B086840680004000CEAD0A68D68
:101860008642E7D9E0858869202818D0D06820F41E
:101870008070D0602068416921F0010141612068D9
:10188000416921F04001416184F83E3025632068C0
:10189000C16821F01001C160A06BFEF769FDA08D49
:1018A000E18D401A81B219E0A08DE18D401A81B21C
:1018B000E08D0028BED00029BCD0D06820F4907004
:1018C000D0602068426922F00102426184F83E3013
:1018D00025632068C26822F01002C2602046FFF72C
:1018E00037FFF8BD05062BD50D0629D594F83D0028
:1018F0002128F6D1A068B0F5805F01D12069B0B190
:10190000206A411C2162216800784860E08C401EFA
:101910000004000CE084E4D12068C16821F080015B
:10192000C1602068C16841F04001C160F8BD206A13
:101930000088C0F308005060206A801C2062E5E740
:101940004006F3D54806F1D5D168204621F0400184
:10195000D16084F83D3000F001F9F8BD8D27000812
:1019600070B5040004D094F83D00002510B106E0E5
:10197000012070BD84F83C50204600F023F824205C
:1019800084F83D002068C16821F40051C160204600
:1019900000F078FF2068016921F49041016120681E
:1019A000416921F02A0141612068C16841F4005178
:1019B000C1602564202084F83D0084F83E000020AA
:1019C00070BD0000F0B585B000240094019402942D
:1019D000039442490068404F4E1502220323404DB4
:1019E000B84228D1886940F480408861886900F451
:1019F00080400490886940F00400886188696946E5
:101A000000F00400CDE90330CDE900622846FEF77E
:101A10006BFD2815CDE90004694628460294FEF7BF
:101A200063FD002211462520FEF7BEFF2520FEF7AC
:101A3000ADFF05B0F0BD2B4FB84220D1C86940F4CE
:101A40000030C861C86900F400300490886940F033
:101A5000040088618869694600F00400049004204D
:101A6000CDE9000203932846FEF73EFD0820CDE9AC
:101A70000004694628460294FEF736FDD9E71A4D60
:101A8000A842D6D1C86940F48020C861C86900F472
:101A900080200490886940F0200088618869694648
:101AA00000F020000490A815CDE900020F4D03932B
:101AB0002846FEF719FDCDE90064694628460294E0
:101AC000FEF712FD0A49486820F0300040F0E0605F
:101AD00040F030004860ACE70038014000100240A0
:101AE000000801400044004000480040001401404C
:101AF0000000014090F83E30202B0ED159B152B178
:101B000090F83C30012B08D0012380F83C300023B2
:101B1000036300F013BF01207047022070470000EC
:101B200000680B4988420DD10A490878312802D053
:101B3000322805D006E0632048600020886001E07C
:101B400006204860012203490348FFF7D3BF000085
:101B50000038014090000020200300207047FEE77D
:101B600070B586B000242848009401940294039430
:101B7000816941F010018161816901F010010491D6
:101B8000816941F004018161816901F004010491DE
:101B9000816941F008018161816901F008010491C6
:101BA000816941F040018161816901F04001049146
:101BB000816941F0200181618069144E00F02000AC
:101BC00040F23F350490002229463046FEF789FD59
:101BD0000120CDE90050022569463046CDE9024595
:101BE000FEF782FC77208DE83100094D69462846D2
:101BF000FEF77AFC0820CDE90004694628460294E5
:101C0000FEF772FC06B070BD0010024000100140EB
:101C1000001401400D4810B50B4901600C494160AA
:101C200000214FF480428160C0E90312416181616B
:101C3000C1610162FEF760FD002803D0BDE81040DD
:101C4000FEF75CBB10BD000000540040D400002033
:101C5000A086010010B58CB024216846FEF7D6FAA4
:101C600000241648099414490A94C0E900144FF658
:101C7000FF71C0E902410461446184610320CDE940
:101C800000040120CDE902040494CDE90540079445
:101C900069460A480894FFF70DFA08B1FEF72EFBD3
:101CA000099409A905480A94FFF744F9002801D0CE
:101CB000FEF724FB0CB010BD002C014028010020D1
:101CC00010B58AB0002407941C2168460894FEF7DA
:101CD0009DFA16484FF0804101604721C0E9011488
:101CE00044F61F61C0E903148461FFF783FC08B167
:101CF000FEF704FB079407A90C480894FFF71AF9AC
:101D000008B1FEF7FBFA60200090C320CDE9010482
:101D10000822694605480494FFF709FC08B1FEF75C
:101D2000EDFA0248FFF7AAFB0AB010BD70010020CF
:101D300010B58AB0002407941C2168460894FEF769
:101D400065FA2248204901604721C0E90114632156
:101D5000C0E903148461FFF74DFC08B1FEF7CEFA29
:101D6000079407A919480894FFF7E4F808B1FEF7AB
:101D7000C5FA6020CDE900040294002269461348A8
:101D80000494FFF7D4FB08B1FEF7B8FA04226946C1
:101D90000E48FFF7CCFB08B1FEF7B0FA08226946FF
:101DA0000A48FFF7C4FB08B1FEF7A8FA0C226946FF
:101DB0000648FFF7BCFB08B1FEF7A0FA0348FFF79F
:101DC0005DFB0AB010BD000000040040B801002017
:101DD00010B58CB024216846FEF718FA0024164886
:101DE000099414490A94C0E900144FF6FF71C0E940
:101DF0000241046184610320CDE900040120CDE9A2
:101E000002040494CDE90540079469460A48089401
:101E1000FFF750F908B1FEF771FA099409A90648CD
:101E20000A94FFF787F8002801D0FEF767FA0CB094
:101E300010BD0000000800400002002010B58CB06A
:101E400024216846FEF7E2F9002416480994144953
:101E50000A94C0E900144FF6FF71C0E90241046121
:101E600084610320CDE900040120CDE9020404943B
:101E7000CDE90540079469460A480894FFF71AF926
:101E800008B1FEF73BFA099409A906480A94FFF73E
:101E900051F8002801D0FEF731FA0CB010BD000057
:101EA000000C0040480200201CB500240E4800949D
:101EB0000C49019401604721C0E9011440F2E73167
:101EC0008461C160FFF774F808B1FEF717FA009457
:101ED000694605480194FFF72DF8002801D0FEF768
:101EE0000DFA1CBD001000409002002010B58CB00F
:101EF00024216846FEF78AF90024164809941449FB
:101F00000A94C0E900144FF6FF71C0E90241046170
:101F1000446184610320CDE900040120CDE902047D
:101F20000494CDE90540079469460A480894FFF7F0
:101F3000C1F808B1FEF7E2F9099409A905480A9425
:101F4000FEF7F8FF002801D0FEF7D8F90CB010BD5D
:101F500000340140D80200200C4810B50A49016045
:101F60004FF4E1314160002181600C22C160C0E981
:101F700004128161C161FFF7F3FC002803D0BDE8C2
:101F80001040FEF7BBB910BD00380140200300200F
:101F90000C4810B50A4901604FF4E131416000215D
:101FA00081600C22C160C0E904128161C161FFF748
:101FB000D7FC002803D0BDE81040FEF79FB910BD44
:101FC00000440040640300200C4810B50A49016039
:101FD0004FF4E1314160002181600C22C160C0E911
:101FE00004128161C161FFF7BBFC002803D0BDE88A
:101FF0001040FEF783B910BD00480040A803002040
:1020000010B50D4C0D482168006800F0B9F820614A
:102010000B486168006800F0DDF860610948A1685C
:10202000006800F00DF9A0610748E168006800F061
:1020300041F9E06110BD00002000002018000020E0
:102040001C0000201000002014000020FEE7FEE726
:102050007047704770B50F4E0F4D04004FF00102EE
:102060000CD501213046FEF73CFB00220221304610
:10207000FEF737FB29686042C86370BD0221304615
:10208000FEF72FFB002201213046FEF72AFB2868CD
:10209000C46370BD00100140B801002070B50F4E40
:1020A0000F4D04004FF001020CD508213046FEF719
:1020B00018FB002204213046FEF713FB296860421A
:1020C000086470BD04213046FEF70BFB0022082196
:1020D0003046FEF706FB2868046470BD001001401E
:1020E000B801002070B50F4E0F4D04004FF00102F3
:1020F0000CD520213046FEF7F4FA0022102130469C
:10210000FEF7EFFA29686042486370BD102130463F
:10211000FEF7E7FA002220213046FEF7E2FA2868AF
:10212000446370BD00100140B80100202DE9F0416A
:1021300004001148114D4FF400764FF480774FF0B2
:1021400000020DD531460646FEF7CBFA012239468C
:102150003046FEF7C6FA296860428863BDE8F08120
:1021600039460746FEF7BDFA012231463846FEF7EA
:10217000B8FA28688463F1E700100140B801002034
:1021800070B50D1A284600F029FD114C616B00F066
:102190003DFD0646206C281A00F020FD216B00F062
:1021A00035FD314600F09CFC00F0FCFC2564206607
:1021B000616E08446066322802DD3220606604E009
:1021C0006FF03101884200DA6166606E70BD000018
:1021D000200000202DE9F0410D1A284600F0FEFCF9
:1021E000154CE16B00F012FD0646606C281A00F0F9
:1021F000F5FCA16B00F00AFD8046314600F070FC52
:1022000000F0D0FC0D4FA066064640467D6000F011
:10221000C9FCB8606564E06E3044E066322802DDD7
:102220003220E06604E06FF03101884200DAE166B6
:10223000E06EBDE8F081000020000020BC0000201E
:102240002DE9F0470D1A284600F0C8FC174C616ACA
:1022500000F0DCFC8146A06C4E46281A00F0BEFC63
:10226000216A00F0D3FC8046314600F039FC00F0D2
:1022700099FC0F4E206507464046F56000F092FC41
:102280003061484600F08EFC7061A564606D384492
:102290006065322802DD3220606504E06FF03101B4
:1022A000884200DA6165606DBDE8F087200000209B
:1022B000BC00002070B50D1A284600F08FFC114CB0
:1022C000E16A00F0A3FC0646E06C281A00F086FCE8
:1022D000A16A00F09BFC314600F002FC00F062FCB9
:1022E000E564A065E16D0844E065322802DD322036
:1022F000E06504E06FF03101884200DAE165E06DED
:1023000070BD000020000020FEF7E8BA30B58FB0A5
:1023100028216846FDF77AFF14210AA8FDF776FF09
:102320000120010400248DE8130004904FF4E01014
:10233000CDE90810022507956846FEF759FC08B15B
:1023400072B6FEE70F20CDE90A054FF48060CDE9B3
:102350000C4002210AA80E94FEF758FB002801D079
:1023600072B6FEE70FB030BD704700002DE9F041B6
:10237000224C4FF4FA616068401C6060884200DDC6
:1023800061601F4E4FF4966300253068984212DB5F
:102390002068401C206009282BD16068B0F57A7F46
:1023A00001DB00F04BF9FDF795FFFFF729FE00F088
:1023B00085FB25601DE04FF4FA71124AA160E160CF
:1023C00017683D641768FD6317687D63126895633D
:1023D0000D4A401C30601068C363A068401EA060B6
:1023E000401CFAD11068C163E068401EE060401CE8
:1023F000FAD1BDE8F0410548FEF78CBF9C000020F3
:1024000098000020B80100207001002090020020F8
:10241000F0B502681C4D1D4E1D4FDFF878C01E4BF5
:102420004FF0804EA84209D0984207D0704505D0A1
:10243000B04203D0B84201D0604503D122F070040D
:102440004A682243A84209D0984207D0704505D077
:10245000B04203D0B84201D0604503D122F44074A9
:10246000CA6822434C6922F08002224302608A68D3
:10247000C2620A688262A84201D0984201D1096909
:10248000016301214161F0BD002C014000040040C6
:1024900000080040000C00400034014010B501F07D
:1024A0001F010123046A8B409C430462036A8A4033
:1024B0001343036210BD0000F0B5026A22F001026E
:1024C0000262026A43688469114E24F073050C6845
:1024D000104F2C4322F002058A682A43B04201D0F3
:1024E000B84205D122F00805CA682A4322F0040246
:1024F000B04201D0B84205D14D6923F440731D4369
:102500008B692B4343608461496841630262F0BD7B
:10251000002C014000340140F0B5026A22F01002A4
:102520000262026A436884690D6824F4E64444EA5E
:1025300005248D6822F0200242EA05120F4D104E4C
:10254000A84201D0B04206D1CF6822F0800242EA10
:10255000071222F04002A84201D0B04207D14D69D3
:1025600023F4406343EA85038D6943EA85034360AE
:102570008461496881630262F0BD0000002C014063
:1025800000340140F0B5026A22F480720262026AED
:102590004368C46922F4007224F073050C68124E7B
:1025A0002C438D6842EA05220E4DA84201D0B0426C
:1025B00006D1CF6822F4006242EA072222F4806248
:1025C000A84201D0B04207D14D6923F4405343EAF9
:1025D00005138D6943EA05134360C4614968C1630B
:1025E0000262F0BD002C01400034014030B5026AA7
:1025F00022F480520262036A4268C4690D6824F4BE
:10260000E64444EA05248D6823F4005343EA053385
:10261000084DA84202D0084DA84204D14D6922F4C9
:10262000804242EA85124260C461496801640362E3
:1026300030BD0000002C0140003401402DE9F0477E
:10264000DFF834A104215046FEF746F84B4C4C4DC0
:102650004C4E4D4F4FF0190801280BD10821504620
:10266000FEF73AF8012805D110215046FEF734F85C
:10267000012807D004215046FEF72EF84FF0180924
:1026800010B10DE0404650E008215046FEF724F816
:10269000012805D110215046FEF71EF8012865D00B
:1026A00004215046FEF718F801280AD108215046A7
:1026B000FEF712F8012804D110215046FEF70CF85D
:1026C00088B30421D0465046FEF706F828B118E03A
:1026D000296030603960BDE8F08708214046FDF789
:1026E000FBFF70B910214046FDF7F6FF48B94021C5
:1026F0004046FDF7F1FF20B901214046FDF7ECFF10
:1027000090B10121C2464046FDF7E6FF6FF0130885
:102710004FF0280901280DD002215046FDF7DCFFBB
:10272000012807D00BE01CE01420206028603060F6
:102730003860D0E740215046FDF7CEFFB0B14021D0
:102740005046FDF7C9FF012805D020215046FDF76E
:10275000C3FF0128BFD101215046FDF7BDFF00286E
:10276000B9D148464146C4F80090B1E740464946D1
:10277000C4F80080ACE700000014014020000020F5
:1027800024000020280000202C00002010B5406A02
:102790000021C185C184FEF7DCFF10BD0168CA6855
:1027A00022F49072CA6001684A6922F001024A610B
:1027B000016B012904D10168CA6822F01002CA60C5
:1027C000202180F83E1000210163704708B590F881
:1027D0003E10222901D0022008BD81684FF48053A9
:1027E000994201D1026922B1826A99421BD049B152
:1027F0000AE00268816A5268C2F308020A80816AAC
:10280000891C08E0016971B10168496801F07F0124
:102810001170816A491C8162C18D491E0904090C2D
:10282000C18503D019E001684968F1E70168CA6809
:1028300022F02002CA600168CA6822F48072CA606D
:1028400001684A6922F001024A61202180F83E10A5
:10285000016B012903D0FFF763F9002008BD0021B7
:1028600001630168CA6822F01002CA6001680A6840
:10287000D20602D50A6849680091818DFEF768FF8B
:10288000EBE7000070B5044600680169E26821F4D6
:10289000405111430161A16820690143606901430E
:1028A0002068C26841F20C639A430A43C260206800
:1028B0004169A26921F44071114341611E492068B8
:1028C000884202D1FEF74EF901E0FEF73BF900EB3A
:1028D000C00101EB0011606864228000B1FBF0F3DD
:1028E000B3FBF2F36FF018067343B1FBF0F5B1FBE5
:1028F000F0F605EB8305322303EB0515B5FBF2F586
:10290000B6FBF2F605F0F00505EB0615B1FBF0F6A7
:10291000B1FBF0F0B0FBF2F06FF01801484306EBAA
:10292000800003EB0010B0FBF2F0216800F00F0014
:102930002844886070BD00000038014081628285B3
:10294000C28500210164222280F83E2080F83C10DC
:102950000168CA6842F48072CA6001684A6942F03C
:1029600001024A610068C16841F02001C160002095
:10297000704700000148FEF7EDBE00002003002074
:10298000FEE70907090E002804DB00F1E02080F8CB
:102990000014704700F00F0000F1E02080F8141DD3
:1029A00070470000FDF7A2FFFFF7B0FCFFF7D8F873
:1029B000FFF750F9FFF7BCF9FFF7CEFAFFF708FA77
:1029C000FFF73CFAFFF792FAFFF77AF9FFF76CFA94
:1029D000FFF720F9FFF7DCFAFFF7F6FA3C212D4864
:1029E000FEF74EFC3C212C48FEF74AFC3C212B48CC
:1029F000FEF746FC3C212A48FEF742FC002129480C
:102A0000FEF746FE284C012210212046FDF769FE04
:102A1000002220212046FDF764FE04212148FEF714
:102A200037FE0022A1152046FDF75BFE0122510270
:102A30002046FDF756FE08211A48FEF729FE01221E
:102A400002212046FDF74DFE002201212046FDF720
:102A500048FE0C211348FEF71BFE012204212046EC
:102A6000FDF73FFE002208212046FDF73AFE0F4801
:102A7000FEF7EAFA08210E48FEF70AFE01220D4988
:102A80000D48FFF737F807481921026811640068FC
:102A9000C163FEE728010020000200204802002058
:102AA000D8020020B8010020001001409002002050
:102AB00070010020900000202003002010B5074C7A
:102AC0006069FFF7EBFA2069FFF7C4FAE069FFF7E6
:102AD0002DFBA069BDE81040FFF704BB20000020DB
:102AE00090EA010F48BF81F0004100F16281421A73
:102AF0003CBF801A89184FEAD0524FF07F4C1CEA35
:102B0000410FA2EBD15318BF9CEA026F00F03B804B
:102B10004FF0004C4CEA00204CEA012121FA03FC62
:102B200010EB0C0C1ED202F1FF325FEA1C2040EBCE
:102B3000C25038BF70471CF07F0F4FEA400C18BFDF
:102B4000BCF17F4F38BF7047C3F12003994008BFE5
:102B500020F00100BCF17F4F38BF7047A0F1C040AA
:102B600000F01BB94FEA3C00000A40EBC25028BFFE
:102B70001CF0FF0F4FEA400CE6D018BFBCF17F4FAE
:102B800038BF7047EAE79CEA026F05D010EA5C0F95
:102B900008BF00F00040704710B500F0B8F800BF63
:102BA00064FBBE3E41000B0ED3F19E0208D950F4E7
:102BB00000034FEA032323FA02F048BF4042704764
:102BC00010B500F0A4F800BF49922480002070479F
:102BD0006FF0004282EA20007047000010F00041D0
:102BE00048BF4042B0FA80F310FA03F2C3F19D03EC
:102BF0000BD051EAC35101EB1220530638BF704786
:102C000000F1010008BF20F0010070474FF47F0C75
:102C10001CEAD0121EBF1CEAD11392EA0C0F93EAF1
:102C20000C0F00F0478090EA010F48BF42F4807219
:102C30004FF0004C4CEA00204CEA012102EB030269
:102C4000A0FB0113A2F50002002918BF43F0010305
:102C50005B0028BF4FEA330342EB22425FEA132CAA
:102C60004CEBC2502EBFBCEB436FB2F57C0F7047EC
:102C70004FEA036CBCF1004F08BF20F00100B2F531
:102C80007C0F38BF70470BD582F0FF0212F5803FF2
:102C9000C8BF704700F1C040D8BF00F00040704787
:102CA00000F5000C5FEA4C0C48BF7047B0F1C04023
:102CB00000F073B890EA010F0CEAD11348BF42F458
:102CC0008072624538BF634504D280EA010000F09B
:102CD0000040704710B500F01AF800BF8900013EAF
:102CE00000F007B800F009B85FEA410C5FEA1C6C1D
:102CF00008D080EA010000F050B85FEA400C5FEABB
:102D00001C6CF6D14FF00040A0F5800070470EF12A
:102D1000020E2EF0030E5EF8044B244204D44FEA58
:102D20004102B2F17F4F11D84FEA4003B3F17F4F18
:102D30000CD80ED14FEAD07CB2F17F4F0CEB4C0C8B
:102D40000CF1020C08BF4CEBD17C04E04FF0080CF6
:102D500001E04FEAD17C0CEB4C0324FA03F404F0BD
:102D60000704B4F1040C06D20EEB840CBDE810404D
:102D70004CF0010C6047DFE80CF0070802024FF04E
:102D80000040A0F5800010BD0846420018BFD2F1F7
:102D9000807288BF00F0004010BDFF2141EAD05092
:102DA000C005704790EA010F48BF81F000413FF530
:102DB0009EAE421A04D882F00042A0EB02001144F9
:102DC0004FEAD0524FF07F4C1CEA410FA2EBD15397
:102DD00018BF9CEA026F4AD04FF0004C4CEA00202A
:102DE0004CEA012121FA03FCB0EB0C0C0FD412F0D9
:102DF000FE0F36D05FEA4C001DD5001240EBC250EA
:102E000038BF70471CF03F0F18BF70470BE0A2F1AE
:102E100001025FEA1C2040EBC25038BF70471CF033
:102E20007F0F18BF7047C3F12003994014BF401EA5
:102E300020F00100704780084FEA122308BF704756
:102E4000B0FA80FCA2EB0C02CCF1280C60FA0CF07A
:102E500093EA122F04BF00EBC25070474FEAC370D1
:102E60007047130A5FEADC1008BF7047F6E79CEA78
:102E7000026F04D010EA5C0F08BF0020704710B545
:102E8000FFF745FF40DFF63E81F00040704700004D
:102E9000000000000000010203040607080900000A
:102EA0000000010203040000C82E000800000020FA
:102EB000BC0000006C010008842F0008BC0000204A
:102EC00094090000880100080000000000000000D4
:102ED00000000000000000000000000000000000F2
:102EE00000000000000000001900000019000000B0
:102EF00019000000190000000000000000000000A0
:102F00000000000000000000000040400000803F82
:102F1000000040400000803F000040400000803F33
:102F2000000040400000803F000000000000000062
:102F30000000000000000000000000000000000091
:102F40000000000000000000000000000000000081
:102F50000000000000000000000000000000000071
:102F6000B0040000000000000000000000000000AD
:102F70000000000001000000100000000000000040
:042F80000024F40035
:0400000508000131BD
:00000001FF
